:100000000C945D010C94C1060C9496060C946B063E
:100010000C9440060C9415060C94EA050C94BF054C
:100020000C9494050C948E010C948E010C948E010A
:100030000C948E010C948E010C948E010C948E0104
:100040000C948E010C948E010C948E010C948E01F4
:100050000C948E010C948E010C948E010C944A0524
:100060000C948E010C9416070C94EC060C948E01E3
:100070000C948E010C948E010C948E010C948E01C4
:100080000C948E010C948E010C948E010C948E01B4
:100090000C948E010C948E010C948E010C948E01A4
:1000A0000C948E010C948E010C948E010C948E0194
:1000B0000C948E010C948E010C948E010C948E0184
:1000C0000C948E010C948E010C948E010C948E0174
:1000D0000C948E010C948E010C948E010C948E0164
:1000E0000C948E010C9434030C94BC010C94AE015E
:1000F0000C94C0030C9445040C94E5010C94B203D9
:100100000C949E030C94C3010C94E3020C94C20261
:100110000C943E030C94C9010C942A030C94110313
:100120000C9452030C94AB040C9407030C94E1015F
:100130000C94ED080C94CF020C9462030C941B03F6
:100140000C94F3010C94D7010C9448030C94EF0128
:100150000C9496040C94CA020C94C0010C94D30124
:100160000C94E9010C94FD020C948F030C94CD01C6
:100170000C94DB010C9461030C94F5020C94B8010F
:100180000C94B4010C94D9020C945C030C94EE0111
:100190000C94F8030C94ED020000210024002700C9
:1001A0002A002D0030003300010100000401070186
:1001B0000A0100002200250028002B002E0031003B
:1001C000340002010000050108010B0100002000BD
:1001D0002300260029002C002F003200000100001F
:1001E00003010601090105050505070508080808BA
:1001F000020202020A0A08080404040401010101BF
:1002000001010101030303030303030304070707B9
:100210000C0C0C0C0C0C0C0C02020202060606065E
:10022000060606060B0B0B0B0B0B0B0B010210202B
:10023000200808102040102040800201020108041C
:1002400002010102040810204080804020100804B0
:100250000201800402018040201008040201080409
:10026000020101020408102040800102040810204D
:10027000408000000A0B02090C0D0E080703040160
:10028000000000000000000000000000000000006E
:10029000000000000000000000000000000012113B
:1002A000100000000000000000000000000000003E
:1002B0000000000000000000ED0811241FBECFEF79
:1002C000D1E2DEBFCDBF00E00CBF12E0A0E0B2E0A3
:1002D000E6EFF2E100E00BBF02C007900D92AE33F3
:1002E000B107D9F722E0AEE3B2E001C01D92A63E0D
:1002F000B207E1F711E0CDE5D1E000E006C02197BB
:100300000109802FFE010E946A09CC35D10780E0E7
:100310000807A9F70E944C070C9479090C94000077
:100320008150823108F05AC0E82FF0E08827E45667
:10033000FE4F8F4F0C946A09BC01C001AE01B4019D
:10034000B801EE01C301C901CD01D301D701DB0121
:10035000E101E501EE01E901EF01F3018091800087
:100360008F77809380000895809180008F7DF9CFF2
:1003700080918000877FF5CF84B58F7784BD089505
:1003800084B58F7DFBCF8091B0008F778093B000D4
:1003900008958091B0008F7DF9CF809190008F7784
:1003A000809390000895809190008F7DF9CF809187
:1003B0009000877FF5CF8091A0008F778093A00079
:1003C00008958091A0008F7DF9CF8091A000877F54
:1003D000F5CF809120018F7780932001089580913F
:1003E00020018F7DF9CF80912001877FF5CFCF93BA
:1003F000DF93282F30E0F901EE58FD4F8491F90189
:10040000E45DFD4FD491F901EA51FE4FC491CC2334
:10041000A1F081110E949001EC2FF0E0EE0FFF1F80
:10042000E453FE4FA591B491EC91ED2381E090E06F
:1004300009F480E0DF91CF91089580E090E0FACF59
:100440001F93CF93DF93282F30E0F901EE58FD4F33
:100450008491F901E45DFD4FD491F901EA51FE4F19
:10046000C491CC23A9F0162F81110E949001EC2F8A
:10047000F0E0EE0FFF1FEE54FE4FA591B4918FB741
:10048000F894EC91111108C0D095DE23DC938FBF56
:10049000DF91CF911F910895DE2BF8CFCF93DF939B
:1004A00090E0FC01E45DFD4F24918A519E4FFC01D8
:1004B00084918823C9F090E0880F991FFC01E856C9
:1004C000FE4FA591B491FC01EE54FE4FC591D4911D
:1004D00061110DC09FB7F8948C91209582238C9365
:1004E0008881282328839FBFDF91CF9108956230B0
:1004F00051F49FB7F8943C91822F809583238C937D
:10050000E8812E2BEFCF8FB7F894EC912E2B2C9304
:100510008FBFEACF1F93CF93DF93182FEB0161E0DA
:100520000E944E02209739F460E0812FDF91CF9135
:100530001F910C942002CF3FD10511F461E0F5CF5B
:10054000E12FF0E0EE58FD4FE491E150E23108F088
:10055000B3C0F0E08827E055FD4F8F4F0C946A0937
:10056000C202CA02CF02D902E3025C03ED02F50225
:10057000FD02070311031B032A0334035C033E033C
:100580004803520384B5806884BDC7BDDF91CF9115
:100590001F91089584B5806284BDC8BDF7CF809156
:1005A0008000806880938000D0938900C093880089
:1005B000EDCF80918000806280938000D0938B008B
:1005C000C0938A00E3CF8091800088608093800090
:1005D000D0938D00C0938C00D9CF8091B0008068FB
:1005E0008093B000C093B300D1CF8091B0008062FF
:1005F0008093B000C093B400C9CF80919000806810
:1006000080939000D0939900C0939800BFCF8091C1
:100610009000806280939000D0939B00C0939A00DA
:10062000B5CF80919000886080939000D0939D001A
:10063000C0939C00ABCF8091A00080688093A00005
:100640008091A0008F7B8093A000D093A900C093DD
:10065000A8009CCF8091A00080628093A000D093DE
:10066000AB00C093AA0092CF8091A00088608093D5
:10067000A000D093AD00C093AC0088CF8091200142
:10068000806880932001D0932901C09328017ECFF8
:1006900080912001806280932001D0932B01C09330
:1006A0002A0174CF80912001886080932001D0932B
:1006B0002D01C0932C016ACFC038D1050CF03ECF7C
:1006C00033CF0895AF92BF92CF92DF92EF92FF9215
:1006D0000F931F93CF93DF936C017B018B01040F6A
:1006E000151FEB015E01AE18BF08C017D10759F006
:1006F0006991D601ED91FC910190F081E02DC60148
:100700001995892B79F7C501DF91CF911F910F9131
:10071000FF90EF90DF90CF90BF90AF900895FC01D5
:10072000538D448D252F30E0842F90E0821B930B56
:10073000541710F0CF96089501970895FC01918DFC
:10074000828D981761F0A28DAE0FBF2FB11D5D96FF
:100750008C91928D9F5F9F73928F90E008958FEFA1
:100760009FEF0895FC01918D828D981731F0828D55
:10077000E80FF11D858D90E008958FEF9FEF0895AC
:10078000FC01918D228D892F90E0805C9F4F821B10
:1007900091098F739927089589E492E00E94C0031C
:1007A00021E0892B09F420E0822F0895FC01A48D1B
:1007B000A80FB92FB11DA35ABF4F2C91848D90E083
:1007C00001968F739927848FA689B7892C93A08966
:1007D000B1898C91837080648C93938D848D9813F0
:1007E00006C00288F389E02D80818F7D8083089583
:1007F000EF92FF920F931F93CF93DF93EC0181E071
:10080000888F9B8D8C8D98131AC0E889F989808117
:1008100085FF15C09FB7F894EE89FF896083E8894A
:10082000F98980818370806480839FBF81E090E03C
:10083000DF91CF911F910F91FF90EF900895F62EC9
:100840000B8D10E00F5F1F4F0F731127E02E8C8D63
:100850008E110CC00FB607FCFACFE889F9898081A8
:1008600085FFF5CFCE010E94D603F1CFEB8DEC0FC3
:10087000FD2FF11DE35AFF4FF0829FB7F8940B8FC5
:10088000EA89FB8980818062CFCFCF93DF93EC012F
:10089000888D8823B9F0AA89BB89E889F9898C9168
:1008A00085FD03C0808186FD0DC00FB607FCF7CF24
:1008B0008C9185FFF2CF808185FFEDCFCE010E9424
:1008C000D603E9CFDF91CF91089580E090E0892BA6
:1008D00029F00E94CC0381110E94000080E090E08A
:1008E000892B49F080E090E0892B29F00E940000DC
:1008F00081110E94000080E090E0892B49F080E0A7
:1009000090E0892B29F00E94000081110E940000D4
:1009100080E090E0892B49F080E090E0892B29F07D
:100920000E94000081110C940000089582E00E9452
:10093000F701892B51F480913E0290913F0201977B
:1009400090933F0280933E02089580913E029091E1
:100950003F020196F5CF83E00E94F701892B51F405
:1009600080913E0290913F02019690933F028093C6
:100970003E02089580913E0290913F020197F5CF8B
:10098000FC0101900020E9F73197AF01481B590B9A
:10099000BC0189E492E00C9462038F929F92AF9223
:1009A000BF920F931F93CF93DF93CDB7DEB7A1977D
:1009B0000FB6F894DEBF0FBECDBF19A2423008F4C7
:1009C0004AE08E010F5D1F4F842E912CB12CA12C7B
:1009D000A50194010E943909E62FB901CA01EA3044
:1009E000F4F4E05DD801EE938D01232B242B252B0D
:1009F00079F790E080E0109719F0CD010E94C004D3
:100A0000A1960FB6F894DEBF0FBECDBFDF91CF9198
:100A10001F910F91BF90AF909F908F900895E95CC8
:100A2000E1CFCF92DF92EF92FF92CF93DF936B01F2
:100A30007C016DE289E492E00E94F803EC016627F4
:100A40007727CB016C197D098E099F094AE00E9426
:100A5000CD048C0F9D1FDF91CF91FF90EF90DF9021
:100A6000CF900895CF93DF93BC01990F880B990B1A
:100A700097FF0CC00E941105EC0182E292E00E94F7
:100A8000C0048C0F9D1FDF91CF9108954AE00E9412
:100A9000CD04F2CF1F920F920FB60F9211242F9315
:100AA0003F938F939F93AF93BF9380914502909113
:100AB0004602A0914702B09148023091440223E0DF
:100AC000230F2D3758F50196A11DB11D2093440227
:100AD0008093450290934602A0934702B093480248
:100AE0008091400290914102A0914202B091430254
:100AF0000196A11DB11D8093400290934102A093E5
:100B00004202B0934302BF91AF919F918F913F9169
:100B10002F910F900FBE0F901F90189526E8230F6E
:100B20000296A11DB11DD2CF1F920F920FB60F9248
:100B300011240BB60F922F933F934F935F936F93B4
:100B40007F938F939F93AF93BF93EF93FF93E09126
:100B50000E02F0910F021995FF91EF91BF91AF91A5
:100B60009F918F917F916F915F914F913F912F91C5
:100B70000F900BBE0F900FBE0F901F9018951F92F5
:100B80000F920FB60F9211240BB60F922F933F9333
:100B90004F935F936F937F938F939F93AF93BF9385
:100BA000EF93FF93E0910C02F0910D021995FF91E4
:100BB000EF91BF91AF919F918F917F916F915F91D5
:100BC0004F913F912F910F900BBE0F900FBE0F9042
:100BD0001F9018951F920F920FB60F9211240BB60B
:100BE0000F922F933F934F935F936F937F938F93C6
:100BF0009F93AF93BF93EF93FF93E0910202F09125
:100C000003021995FF91EF91BF91AF919F918F9141
:100C10007F916F915F914F913F912F910F900BBEFC
:100C20000F900FBE0F901F9018951F920F920FB646
:100C30000F9211240BB60F922F933F934F935F9314
:100C40006F937F938F939F93AF93BF93EF93FF9394
:100C5000E0910002F09101021995FF91EF91BF918F
:100C6000AF919F918F917F916F915F914F913F9144
:100C70002F910F900BBE0F900FBE0F901F901895E5
:100C80001F920F920FB60F9211240BB60F922F9353
:100C90003F934F935F936F937F938F939F93AF9304
:100CA000BF93EF93FF93E0910A02F0910B02199525
:100CB000FF91EF91BF91AF919F918F917F916F9134
:100CC0005F914F913F912F910F900BBE0F900FBEF0
:100CD0000F901F9018951F920F920FB60F9211242C
:100CE0000BB60F922F933F934F935F936F937F9326
:100CF0008F939F93AF93BF93EF93FF93E09108027D
:100D0000F09109021995FF91EF91BF91AF919F91D9
:100D10008F917F916F915F914F913F912F910F90A4
:100D20000BBE0F900FBE0F901F9018951F920F9241
:100D30000FB60F9211240BB60F922F933F934F9340
:100D40005F936F937F938F939F93AF93BF93EF9333
:100D5000FF93E0910602F09107021995FF91EF9140
:100D6000BF91AF919F918F917F916F915F914F91C3
:100D70003F912F910F900BBE0F900FBE0F901F90C1
:100D800018951F920F920FB60F9211240BB60F9267
:100D90002F933F934F935F936F937F938F939F9383
:100DA000AF93BF93EF93FF93E0910402F09105029C
:100DB0001995FF91EF91BF91AF919F918F917F9185
:100DC0006F915F914F913F912F910F900BBE0F90BC
:100DD0000FBE0F901F9018951F920F920FB60F9293
:100DE00011240BB60F922F933F934F935F936F9302
:100DF0007F938F939F93AF93BF93EF93FF9389E478
:100E000092E00E94D603FF91EF91BF91AF919F9125
:100E10008F917F916F915F914F913F912F910F90A3
:100E20000BBE0F900FBE0F901F9018951F920F9240
:100E30000FB60F9211240BB60F922F938F939F939F
:100E4000EF93FF93E0915902F0915A028081E09173
:100E50005F02F091600282FD1DC09081809162026C
:100E60008F5F8F7320916302821741F0E0916202DD
:100E7000F0E0E75BFD4F958F80936202FF91EF9169
:100E80009F918F912F910F900BBE0F900FBE0F90DF
:100E90001F9018958081F2CF789484B5826084BDCC
:100EA00084B5816084BD85B5826085BD85B581606E
:100EB00085BD80916E00816080936E0010928100EC
:100EC00080918100826080938100809181008160A7
:100ED0008093810080918000816080938000809168
:100EE000B10084608093B1008091B00081608093F4
:100EF000B000809191008260809391008091910078
:100F00008160809391008091900081608093900037
:100F10008091A10082608093A1008091A1008160F6
:100F20008093A1008091A00081608093A0008091B7
:100F30002101826080932101809121018160809351
:100F400021018091200181608093200180917A00AD
:100F5000846080937A0080917A00826080937A0026
:100F600080917A00816080937A0080917A00806815
:100F700080937A001092C100E0915902F0915A02D8
:100F800082E08083E0915502F09156021082E09158
:100F90005702F091580280E1808310926102E09143
:100FA0005D02F0915E0286E08083E0915B02F09149
:100FB0005C02808180618083E0915B02F0915C0241
:100FC000808188608083E0915B02F0915C02808187
:100FD00080688083E0915B02F0915C0280818F7D6C
:100FE000808362E082E00E944E0262E083E00E9421
:100FF0004E028BEA94E0909301028093000280916C
:101000006A00836080936A00EC9A86E994E090938A
:1010100003028093020280916A008C6080936A00D0
:10102000ED9A61E086E00E944E0261E084E20E9457
:101030004E0260E082E10E944E0260E083E10E9485
:101040004E0261E08BE00E944E0261E08CE00E9463
:101050004E0261E088E00E944E0261E08EE10E9453
:101060004E0261E089E00E944E0261E081E20E944E
:101070004E0288EAA82E81E6B82E98EA492E91E61B
:10108000592E612C712C8FB7F89400913E0210916B
:101090003F028FBFD501A01BB10B29EB30E00E94AE
:1010A0007209A30192010E941A092C5E3F4F4F4F13
:1010B0005F4FE9012E3C310514F0CDECD0E006374E
:1010C00081E61807E4F561E084E20E94200261E015
:1010D0008CE00E94200261E08EE10E94200261E02B
:1010E00081E20E942002BE0186E00E948A02BE01C7
:1010F0008BE00E948A02BE0188E00E948A02BE0143
:1011000089E00E948A0285E292E00E94C0044AE0DF
:1011100068EA71E680E090E00E94CD0480E392E00E
:101120000E94C004C8010E94320587E392E00E9439
:10113000C004CE010E9432050E946504A4CFC801FC
:101140008757914683369105A0F470E060E086E011
:101150000E948A0270E060E08BE00E948A0270E0E8
:1011600060E088E00E948A0270E060E089E00E940E
:101170008A020B3D81E6180734F229EB30E0D801F2
:10118000A85AB1460E947209A30192010E941A094D
:1011900069017A0184E1C80ED11CE11CF11C60E0F8
:1011A00084E20E94200260E08CE00E94200260E065
:1011B0008EE10E94200260E081E20E942002B601DE
:1011C00086E00E948A02B6018BE00E948A02B60184
:1011D00088E00E948A02B60193CFE9E4F2E013822C
:1011E000128288EE93E0A0E0B0E084839583A6832A
:1011F000B78384E192E09183808385EC90E09587CA
:10120000848784EC90E09787868780EC90E0918BD0
:10121000808B81EC90E0938B828B82EC90E0958BBD
:10122000848B86EC90E0978B868B118E128E138EBA
:10123000148E0895052E97FB1EF400940E94310928
:1012400057FD07D00E94390907FC03D04EF40C94D7
:10125000310950954095309521953F4F4F4F5F4F45
:10126000089590958095709561957F4F8F4F9F4F12
:101270000895A1E21A2EAA1BBB1BFD010DC0AA1FD7
:10128000BB1FEE1FFF1FA217B307E407F50720F0EF
:10129000A21BB30BE40BF50B661F771F881F991F6A
:1012A0001A9469F760957095809590959B01AC01B3
:1012B000BD01CF010895A29FB001B39FC001A39FBC
:1012C000700D811D1124911DB29F700D811D11247F
:1012D000911D0895EE0FFF1F881F8BBF0790F69199
:1012E000E02D19940E945B09B7FF0895821B930BB0
:0612F0000895F894FFCF01
:1012F60061036103610361036103610361036103C8
:1013060000000000F80362038F034504C0039E0338
:10131600B2030D0A003A205461726765743A2000E0
:0E13260020506F733A2000205077723A20005A
:00000001FF
